:020000040800F2
:04400000FD80000837
:10800000C48300080000002004000020C48300088E
:10801000000000100000001008000020C001002037
:108020000000001000000010F8B500BFF8BC08BC4C
:108030009E467047F8B500BFF8BC08BC9E46704726
:0C804000E1820008718000084D800008FB
:10804C0010B5054C237833B9044B13B10448AFF386
:10805C0000800123237010BD0800002000000000E8
:10806C00B883000808B5034B1BB103490348AFF3B1
:10807C00008008BD000000000C000020B883000840
:10808C00A3F5803A704700BF154B002B08BF114B6E
:10809C009D46FFF7F5FF00218B460F461148124A0B
:1080AC00121A00F045F80C4B002B00D098470B4BE4
:1080BC00002B00D098470020002104000D000B4835
:1080CC0000F022F800F086F82000290000F012F89E
:1080DC0000F020F800000800000000000000000084
:1080EC000000022008000020C0010020318200089E
:1080FC0070470000034A137883F0010313700020CB
:10810C00704700BF04000020002301461A461846A1
:10811C0000F0A0B808B50021044600F0E5F8034BC8
:10812C001B6803B19847204600F03EF9240000205C
:10813C00830730B547D0541E002A3ED0CAB203463E
:10814C0001E0013C39D303F8012B9D07F9D1032C35
:10815C002CD9CDB205EB05250F2C05EB054535D9F2
:10816C00A4F1100222F00F0C03F1100EE6444FEABA
:10817C00121C1A46C2E90055C2E90255103272456A
:10818C00F8D10CF1010214F00C0F03EB021204F005
:10819C000F0C13D0ACF1040323F00303043313448A
:1081AC0042F8045B9342FBD10CF003042CB1C9B22E
:1081BC001C4403F8011BA342FBD130BD644613469B
:1081CC00002CF4D1F9E703461446C0E71A46A4463E
:1081DC00E0E700BF70B50F4B0F4DAB42A3EB0506AC
:1081EC0007D0B610002455F8043B01349847A6423A
:1081FC00F9D8FFF713FF094D094B5E1BAB424FEA51
:10820C00A60606D0002455F8043B01349847A64234
:10821C00F9D870BD408000084080000840800008FC
:10822C004880000838B5074D074C2C1BA41005D00E
:10823C00013C55F8043D9847002CF9D1BDE8384075
:10824C00FFF7F2BE4C80000848800008704700BF62
:10825C00704700BF2DE9F8431B4D06462868984629
:10826C000F469146FFF7F2FF184B1C681CB32868A9
:10827C0065681F2D22DC4EB96B1C0235636044F817
:10828C002570FFF7E5FF0020BDE8F88304EB8501BE
:10829C000123C1F88890D4F88821AB401A43022EF0
:1082AC00C4F88821C1F80881E6D1D4F88C211A438E
:1082BC00C4F88C21E0E7064C1C60D8E7FFF7C8FF38
:1082CC004FF0FF30E0E700BF00000020BC010020B1
:1082DC002C000020024B13B10248FFF715BF70476A
:1082EC0000000000318200082DE9F04F2C4B2D4F7F
:1082FC0083B082461868CDF804A08B46FFF7A6FF22
:10830C003E684EB34FF000094FF001087468651ECB
:10831C0022D4013406EB8404BBF1000F23D1736823
:10832C002268013BAB420CBF7560C4F8009072B17F
:10833C00D6F88811D6F804A008FA05F30B421CD124
:10834C00904773683A68534523D1B24221D1013D1D
:10835C006B1CA4F10404DFD1114B186803B0BDE809
:10836C00F04FFFF775BFD4F800315B45D7D0013D16
:10837C006A1CA4F10404F6D1EEE7D6F88C01D4F80B
:10838C008010034209D10198904773683A685345AD
:10839C00DBD0002AE0D01646B8E708469047D0E775
:1083AC0000000020BC010020FEE700BF0000000020
:0883BC00D0FCFF7F010000006E
:0483C400280000206D
:0183C80001B3
:0400000508008095DA
:00000001FF